:10000000BBC5A0C6C9C5C8C5C7C58BC6C5C5C4C5FF
:10001000C3C5C2C5C1C5C0C5BFC54AC6BDC5BCC52F
:10002000BBC5BAC5B9C5B8C5B7C5B6C5B5C5B4C5EC
:10003000B3C5B2C5000000000000000000000000D1
:1000400000000000000000000000000000000000B0
:1000500000000000000000000000000000000000A0
:100060000000000000000000000000000000000090
:100070000000000000000000000000000000000080
:100080000000000000000000000000000000000070
:100090000000000000000000000000000000000060
:1000A0000000000000000000000000000000000050
:1000B0000000000000000000000000000000000040
:1000C0000000000000000000000000000000000030
:1000D00000000000000000020406090B0D0F1214BE
:1000E00016181B1D1F212426282A2C2F31333537A3
:1000F0003A3C3E40424547494B4D4F525456585A60
:100100005C5E60626567696B6D6F71737577797B33
:100110007D7F81838587888A8C8E9092949697992B
:100120009B9D9FA0A2A4A6A7A9ABACAEB0B1B3B54E
:10013000B6B8B9BBBDBEC0C1C3C4C5C7C8CACBCDA4
:10014000CECFD1D2D3D5D6D7D8D9DBDCDDDEDFE038
:10015000E2E3E4E5E6E7E8E9EAEBECEDEDEEEFF00B
:10016000F1F2F2F3F4F5F5F6F7F7F8F9F9FAFAFB2C
:10017000FBFCFCFDFDFEFEFFFFFFFFFFFFFFFFFF9F
:10018000FFFFFFFFFFFFFFFFFFFFFFFFFFFFFFFF7F
:10019000FFFFFFFFFFFFFFFFFFFFFFFFFFFFFFFF6F
:1001A000FFFFFFFFFFFFFFFFFFFFFFFFFFFFFFFF5F
:1001B000FFFFFFFFFFFFFFFFFFFFFFFFFFFFFFFF4F
:1001C000FFFFFEFEFDFDFCFCFBFBFAFAF9F9F8F778
:1001D000F7F6F5F5F4F3F2F2F1F0EFEEEDEDECEB0E
:1001E000EAE9E8E7E6E5E4E3E2E0DFDEDDDCDBD9EF
:1001F000D8D7D6D5D3D2D1CFCECDCBCAC8C7C5C418
:10020000C3C1C0BEBDBBB9B8B6B5B3B1B0AEACAB7F
:10021000A9A7A6A4A2A09F9D9B9997969492908E21
:100220008C8A88878583817F7D7B79777573716FF1
:100230006D6B69676562605E5C5A585654524F4DEB
:100240004B49474542403E3C3A373533312F2C2A03
:10025000282624211F1D1B181614120F0D0B09062A
:100260000402000000000000000000000000000088
:10027000000000000000000000000000000000007E
:10028000000000000000000000000000000000006E
:10029000000000000000000000000000000000005E
:1002A000000000000000000000000000000000004E
:1002B000000000000000000000000000000000003E
:1002C000000000000000000000000000000000002E
:1002D000000000000000000000000000000000001E
:1002E000000000000000000000000000000000000E
:1002F00000000000000000000000000000000000FE
:100300000000000000FFFFFEFEFDFDFDFCFCFBFB0E
:10031000FAF9F9F8F8F7F6F6F5F4F3F3F2F1F0EF8D
:10032000EFEEEDECEBEAE9E8E7E6E5E4E3E2E1E055
:10033000DFDDDCDBDAD9D7D6D5D4D2D1D0CECDCC67
:10034000CAC9C7C6C5C3C2C0BFBDBBBAB8B7B5B4BA
:10035000B2B0AFADABAAA8A6A4A3A19F9D9C9A984A
:10036000969493918F8D8B89878583817F7D7C7A0D
:10037000787674716F6D6B69676563615F5D5B59FA
:10038000575452504E4C4A484543413F3D3A383607
:1003900034322F2D2B29272422201E1B191715122A
:1003A000100E0C090705030000000000000000000B
:1003B000000000000000000000000000000000003D
:1003C000000000000000000000000000000000002D
:1003D000000000000000000000000000000000001D
:1003E000000000000000000000000000000000000D
:1003F00000000000000000000000000000000000FD
:1004000000000000000000000000000000000000EC
:1004100000000000000000000000000000000000DC
:1004200000000000000000000000000000000000CC
:1004300000000000000000000000000000000000BC
:1004400000000000000000000000000000000000AC
:10045000000000000000000000000000000000009C
:10046000000000000000000000000000000000008C
:10047000000000000000000000000000000000007C
:10048000000000000000000000000000000000006C
:10049000000000000000000000000000000000005C
:1004A000000000000000000000000000000000004C
:1004B000000000000000000000000000000000003C
:1004C000000000000000000000000000000000002C
:1004D000000000000000000000000000000000001C
:1004E000000000000000000000000000000000000C
:1004F00000000000000000000000000000000000FC
:1005000000000000000000000000000000000000EB
:1005100000000000000000000000000000000000DB
:1005200000000000000000000000000000000000CB
:1005300000000000030507090C0E10121517191B07
:100540001E20222427292B2D2F323436383A3D3FC6
:10055000414345484A4C4E50525457595B5D5F6188
:10056000636567696B6D6F717476787A7C7D7F8166
:10057000838587898B8D8F91939496989A9C9D9F64
:10058000A1A3A4A6A8AAABADAFB0B2B4B5B7B8BA90
:10059000BBBDBFC0C2C3C5C6C7C9CACCCDCED0D1F2
:1005A000D2D4D5D6D7D9DADBDCDDDFE0E1E2E3E493
:1005B000E5E6E7E8E9EAEBECEDEEEFEFF0F1F2F378
:1005C000F3F4F5F6F6F7F8F8F9F9FAFBFBFCFCFDA5
:1005D000FDFDFEFEFFFF00020407090B0D101214C3
:1005E00016181B1D1F212326282A2C2E31333537A0
:1005F000393C3E40424446484B4D4F515355575964
:100600005B5D60626466686A6C6E70727476787A3C
:100610007C7E7F81838587898B8D8F90929496983D
:10062000999B9D9FA0A2A4A6A7A9ABACAEB0B1B365
:10063000B4B6B7B9BABCBEBFC0C2C3C5C6C8C9CAC2
:10064000CCCDCED0D1D2D3D5D6D7D8D9DBDCDDDE58
:10065000DFE0E1E2E3E4E5E6E7E8E9EAEBECECED34
:10066000EEEFF0F0F1F2F3F3F4F4F5F6F6F7F7F855
:10067000F8F9F9FAFAFBFBFCFCFCFDFDFDFDFEFEC2
:10068000FEFEFEFFFFFFFFFFFFFFFFFFFFFFFFFF7D
:10069000FFFFFEFEFEFEFEFDFDFDFDFCFCFCFBFB88
:1006A000FAFAF9F9F8F8F7F7F6F6F5F4F4F3F3F2E5
:1006B000F1F0F0EFEEEDECECEBEAE9E8E7E6E5E48B
:1006C000E3E2E1E0DFDEDDDCDBD9D8D7D6D5D3D27B
:1006D000D1D0CECDCCCAC9C8C6C5C3C2C0BFBEBCAE
:1006E000BAB9B7B6B4B3B1B0AEACABA9A7A6A4A221
:1006F000A09F9D9B9998969492908F8D8B898785CA
:100700008381807E7C7A78767472706E6C6A68669B
:100710006462605D5B59575553514F4D4B48464499
:1007200042403E3C39373533312E2C2A28262321AE
:100730001F1D1B18161412100D0B090704020000D0
:1007400000000000000000000000000000000000A9
:100750000000000000000000000000000000000099
:100760000000000000000000000000000000000089
:100770000000000000000000000000000000000079
:100A1000020407090B0D10121416181B1D1F2123A9
:100A200026282A2C2E31333537393C3E4042444665
:100A3000484B4D4F51535557595B5D606264666832
:100A40006A6C6E70727476787A7C7E80818385871A
:100A5000898B8D8F9092949698999B9D9FA0A2A42C
:100A6000A6A7A9ABACAEB0B1B3B4B6B7B9BABCBE69
:100A7000BFC0C2C3C5C6C8C9CACCCDCED0D1D2D3DF
:100A8000D5D6D7D8D9DBDCDDDEDFE0E1E2E3E4E593
:100A9000E6E7E8E9EAEBECECEDEEEFF0F0F1F2F38B
:100AA000F3F4F4F5F6F6F7F7F8F8F9F9FAFAFBFBD0
:100AB000FCFCFCFDFDFDFDFEFEFEFEFEFFFFFFFF5C
:100AC000FFFFFFFFFFFFFFFFFFFFFFFEFEFEFEFE3B
:100AD000FDFDFDFDFCFCFCFBFBFAFAF9F9F8F8F76B
:100AE000F7F6F6F5F4F4F3F3F2F1F0F0EFEEEDECE7
:100AF000ECEBEAE9E8E7E6E5E4E3E2E1E0DFDEDDAE
:100B0000DCDBD9D8D7D6D5D3D2D1D0CECDCCCAC9BB
:100B1000C8C6C5C3C2C0BFBEBCBAB9B7B6B4B3B10C
:100B2000B0AEACABA9A7A6A4A2A09F9D9B99989696
:100B30009492908F8D8B89878583817F7E7C7A7854
:100B4000767472706E6C6A68666462605D5B595739
:100B50005553514F4D4B48464442403E3C39373542
:100B600033312E2C2A282623211F1D1B1816141260
:100B7000100D0B090704020011241FBECFEFD4E0B3
:100B8000DEBFCDBF21E0A0E0B1E001C01D92A430E6
:100B9000B207E1F718D06AC133CA8FB7809300015A
:100BA000F89483B7817F846083BF83B7816083BFFC
:100BB00085B7806685BF8F7D85BF7894889583B71C
:100BC0008E7F83BF0895E1E6F0E080E88083D2E085
:100BD000D0838AB188668AB9239AC3E0C4BDC09322
:100BE000B00081E085BD8093B10084EB90E0E1D05E
:100BF0002FEF80E792E0215080409040E1F700C065
:100C0000000088E691E0D5D02FEF80E792E02150F8
:100C100080409040E1F700C0000082EC91E0C9D034
:100C20002FE789EA93E0215080409040E1F700C02F
:100C300000008CE192E0BDD02FEF83EC99E02150D1
:100C400080409040E1F700C000008EE091E0B1D01C
:100C50002FEF81EE94E0215080409040E1F700C0FA
:100C6000000084EB90E0A5D02FEF80E792E02150C8
:100C700080409040E1F700C000008AE390E099D006
:100C80002FE78AE196E0215080409040E1F700C0D4
:100C90000000D0936900EFE6F0E0808181608083FE
:100CA0001092850010928400C09381007894FFCF49
:100CB0001F920F920FB60F9211242F933F934F93D1
:100CC0005F936F937F938F939F93AF93BF93EF93B4
:100CD000FF938AE390E06DD02FEF80E792E0215000
:100CE00080409040E1F700C0000084E080936D00F8
:100CF000809368008AB187798AB92398E8984DDF94
:100D0000FF91EF91BF91AF919F918F917F916F91E3
:100D10005F914F913F912F910F900FBE0F901F90B9
:100D200018951F920F920FB60F9211248F93109265
:100D30006D0081E08CBBE89A8F910F900FBE0F90F1
:100D40001F9018951F920F920FB60F9211242F9398
:100D50003F934F935F936F937F938F939F93AF9343
:100D6000BF93EF93FF93E4E8F0E02081318111829B
:100D700010828AB188668AB9239A2E7F40E050E0BB
:100D800069E575EB84E090E073D0C901CA9611D093
:100D9000FF91EF91BF91AF919F918F917F916F9153
:100DA0005F914F913F912F910F900FBE0F901F9029
:100DB000189520910201309103012817390718F482
:100DC00044E0409301018217930718F42CEF20931D
:100DD0000101909303018093020120910101820F90
:100DE000911D27FD9A95FC01E955F74FE491EE23FB
:100DF00031F024B5206824BDE093B30003C024B5CE
:100E00002F7724BDFC01EA52FA4FE491EE2331F032
:100E100024B5206224BDE093B40003C024B52F7D27
:100E200024BDFC01EB5FFC4FE491EE2339F0A0EB15
:100E3000B0E02C9120682C93E8BD05C0E0EBF0E019
:100E400020812F772083FC01EC5CFF4F8491882365
:100E500039F0E0EBF0E090819062908387BD0895D7
:100E6000E0EBF0E080818F7D80830895F89422C0CC
:100E7000A1E21A2EAA1BBB1BFD010DC0AA1FBB1F9E
:100E8000EE1FFF1FA217B307E407F50720F0A21B10
:100E9000B30BE40BF50B661F771F881F991F1A947D
:100EA00069F760957095809590959B01AC01BD01A7
:080EB000CF010895F894FFCF73
:00000001FF
